:020000040000FA
:08000000803102288731F62F40
:100C2E00F000700823009A0000001D2E23009E1C69
:100C3E00212E222E1D2E232E0800352E0B110530AF
:100C4E002000950000002B2E0B1D2E2E2F2E2B2E4E
:100C5E00302E0130F0020030F13B352E7008710459
:100C6E00031D3A2E3B2E252E3C2E080070087104D3
:100C7E000319422E432E722EF501F50A502E013025
:100C8E00F035F10D890B472E0130F4007408F5078D
:100C9E00502EF11F532E542E462E562E562E7108C0
:100CAE007302031D5C2E70087202031C5F2E602EF1
:100CBE00652E7008F2027108F33B652E0130F13695
:100CCE00F00C890B662E0130F502031D6F2E702E6F
:100CDE00562E722E722E7308F1007208F000772EC7
:100CEE000800F501F6017008710403197F2E802E9D
:100CFE00B52EF701F70A8D2E0130F035F10D890B67
:100D0E00842E0130F4007408F7078D2EF11F902EFB
:100D1E00912E832E932E932E0130F535F60D890BE1
:100D2E00942E71087302031D9E2E70087202031C0E
:100D3E00A12EA22EA82E7008F2027108F33B751494
:100D4E00A82E0130F136F00C890BA92E0130F702D6
:100D5E00031DB22EB32E932EB52EB52E7608F100AE
:100D6E007508F000BA2E0800E830F0000330F100EC
:100D7E007908F3007808F2008631782686317008FB
:100D8E00FA007A08FB00E830F0000330F100790831
:100D9E00F3007808F20086313D2686317108F9009D
:100DAE007008F8007B08303E863117268631643095
:100DBE00F0000030F1007908F3007808F200863177
:100DCE00782686317008FA007A08FB006430F0004D
:100DDE000030F1007908F3007808F20086313D26E4
:100DEE0086317108F9007008F8007B08303E8631B4
:100DFE00172686310A30F0000030F1007908F30032
:100E0E007808F2008631782686317008FA007A0862
:100E1E00FB000A30F0000030F1007908F30078088A
:100E2E00F20086313D2686317108F9007008F8000F
:100E3E007B08303E8631172686317808FA007A080C
:100E4E00FB007B08303E8631172686310800733052
:100E5E0021009900322F1A1C352F362F322F372FA3
:100E6E0020008C0122008C01FF3021008C000C1020
:100E7E0022008C1621008C12843023009E008030BC
:100E8E009D009F011E159F1567309B009E16210029
:100E9E00951295111508F839023895009D01833089
:100EAE009E001E088F3950389E001D14F03022000F
:100EBE0097000A30F0000030F10086312426873189
:100ECE00682F22001708FC390138970021001D08F1
:100EDE0083390C389D000130F0000030F10086316E
:100EEE002426873121009D147C2F9D187F2F802F63
:100EFE007C2F812F1C082000A0002008FD0021005F
:100F0E001B082000A0002008FC0022001708FC3956
:100F1E000238970021001D08833908389D000130E2
:100F2E00F0000030F10086312426873121009D1417
:100F3E00A02F9D18A32FA42FA02FA52F1C08200093
:100F4E00A0002008A80021001B082000A0002008F7
:100F5E00A700403086311726873153308631172649
:100F6E008731503086311726873153308631172618
:100F7E00873120308631172687317C082000A0006B
:100F8E00A1017D08A200A3012208A300A20120084E
:100F9E002207F8002108233DF9008631BB26873150
:100FAE00203086311726873120002735F800280D8E
:100FBE00F9008631BB2687310D30863117268731F1
:100FCE000A30863117268731E830F0000330F10001
:100FDE00863124268731682F682F80310228FC0144
:100FEE00FD012000A501A601A701A801200087315F
:020FFE002E2F94
:020000040001F9
:04000E00C4EFFFDE5E
:00000001FF
