:020000040000FA
:08000000803102288731F62F40
:100C4E00F000700823009A0000002D2E23009E1C39
:100C5E00312E322E2D2E332E0800452E0B1105303F
:100C6E002000950000003B2E0B1D3E2E3F2E3B2EEE
:100C7E00402E0130F0020030F13B452E7008710419
:100C8E00031D4A2E4B2E352E4C2E08007008710473
:100C9E000319522E532E822EF501F50A602E0130C5
:100CAE00F035F10D890B572E0130F4007408F5075D
:100CBE00602EF11F632E642E562E662E662E710840
:100CCE007302031D6C2E70087202031C6F2E702EA1
:100CDE00752E7008F2027108F33B752E0130F13655
:100CEE00F00C890B762E0130F502031D7F2E802E1F
:100CFE00662E822E822E7308F1007208F000872E67
:100D0E000800F501F6017008710403198F2E902E5C
:100D1E00C52EF701F70A9D2E0130F035F10D890B26
:100D2E00942E0130F4007408F7079D2EF11FA02EAB
:100D3E00A12E932EA32EA32E0130F535F60D890B81
:100D4E00A42E71087302031DAE2E70087202031CCE
:100D5E00B12EB22EB82E7008F2027108F33B751444
:100D6E00B82E0130F136F00C890BB92E0130F70296
:100D7E00031DC22EC32EA32EC52EC52E7608F1003E
:100D8E007508F000CA2E0800E830F0000330F100BC
:100D9E007908F3007808F2008631882686317008CB
:100DAE00FA007A08FB00E830F0000330F100790811
:100DBE00F3007808F20086314D2686317108F9006D
:100DCE007008F8007B08303E863127268631643065
:100DDE00F0000030F1007908F3007808F200863157
:100DEE00882686317008FA007A08FB006430F0001D
:100DFE000030F1007908F3007808F20086314D26B4
:100E0E0086317108F9007008F8007B08303E863193
:100E1E00272686310A30F0000030F1007908F30001
:100E2E007808F2008631882686317008FA007A0832
:100E3E00FB000A30F0000030F1007908F30078086A
:100E4E00F20086314D2686317108F9007008F800DF
:100E5E007B08303E8631272686317808FA007A08DC
:100E6E00FB007B08303E8631272686310800733022
:100E7E0021009900422F1A1C452F462F422F472F33
:100E8E0020008C0122008C01FF3021008C000C1000
:100E9E00843023009E0080309D009F011E159F15FB
:100EAE0067309B009E162100951295111508F83992
:100EBE00023895009D0183309E001E088F395038F0
:100ECE009E001D14F030220097000A30F000003012
:100EDE00F100863134268731742F22001708FC3931
:100EEE000138970021001D0883390C389D00013010
:100EFE00F0000030F10086313426873121009D1438
:100F0E00882F9D188B2F8C2F882F8D2F1C0820003B
:100F1E00A0002008FD0021001B082000A0002008D2
:100F2E00FC0022001708FC390238970021001D082A
:100F3E00833908389D000130F0000030F100863111
:100F4E003426873121009D14AC2F9D18AF2FB02F62
:100F5E00AC2FB12F1C082000A0002008A8002100F3
:100F6E001B082000A0002008A7004030863127264D
:100F7E00873120308631272687317C082000A0005B
:100F8E00A1017D08A200A3012208A300A20120084E
:100F9E002207F8002108233DF9008631CB26873140
:100FAE00203086312726873120002735F800280D7E
:100FBE00F9008631CB2687310D30863127268731D1
:100FCE000A30863127268731E830F0000330F100F1
:100FDE00863134268731742F742F80310228FC011C
:100FEE00FD012000A501A601A701A801200087315F
:020FFE003E2F84
:020000040001F9
:04000E00C4EFFFDE5E
:00000001FF
